{
    "contractName": "Creatinifty",
    "abi": [
        {
            "inputs": [],
            "name": "imageCount",
            "outputs": [
                {
                    "internalType": "uint256",
                    "name": "",
                    "type": "uint256"
                }
            ],
            "stateMutability": "view",
            "type": "function"
        },
        {
            "inputs": [
                {
                    "internalType": "uint256",
                    "name": "",
                    "type": "uint256"
                }
            ],
            "name": "images",
            "outputs": [
                {
                    "internalType": "uint256",
                    "name": "id",
                    "type": "uint256"
                },
                {
                    "internalType": "string",
                    "name": "hash",
                    "type": "string"
                },
                {
                    "internalType": "string",
                    "name": "description",
                    "type": "string"
                },
                {
                    "internalType": "uint256",
                    "name": "tipAmount",
                    "type": "uint256"
                },
                {
                    "internalType": "address",
                    "name": "author",
                    "type": "address"
                }
            ],
            "stateMutability": "view",
            "type": "function"
        },
        {
            "inputs": [],
            "name": "name",
            "outputs": [
                {
                    "internalType": "string",
                    "name": "",
                    "type": "string"
                }
            ],
            "stateMutability": "view",
            "type": "function"
        },
        {
            "inputs": [
                {
                    "internalType": "string",
                    "name": "_imgHash",
                    "type": "string"
                },
                {
                    "internalType": "string",
                    "name": "_description",
                    "type": "string"
                }
            ],
            "name": "uploadImage",
            "outputs": [],
            "stateMutability": "nonpayable",
            "type": "function"
        }
    ],
    "bytecode": "6000805560c0604052600b60808190526a4372656174696e6966747960a81b60a09081526100309160019190610043565b5034801561003d57600080fd5b50610117565b82805461004f906100dc565b90600052602060002090601f01602090048101928261007157600085556100b7565b82601f1061008a57805160ff19168380011785556100b7565b828001600101855582156100b7579182015b828111156100b757825182559160200191906001019061009c565b506100c39291506100c7565b5090565b5b808211156100c357600081556001016100c8565b600181811c908216806100f057607f821691505b6020821081141561011157634e487b7160e01b600052602260045260246000fd5b50919050565b610657806101266000396000f3fe608060405234801561001057600080fd5b506004361061004c5760003560e01c806306fdde0314610051578063848564821461006f57806392053b6314610093578063a91b8314146100aa575b600080fd5b6100596100bf565b604051610066919061053f565b60405180910390f35b61008261007d3660046104d9565b61014d565b604051610066959493929190610559565b61009c60005481565b604051908152602001610066565b6100bd6100b8366004610475565b610296565b005b600180546100cc906105a7565b80601f01602080910402602001604051908101604052809291908181526020018280546100f8906105a7565b80156101455780601f1061011a57610100808354040283529160200191610145565b820191906000526020600020905b81548152906001019060200180831161012857829003601f168201915b505050505081565b6002602052600090815260409020805460018201805491929161016f906105a7565b80601f016020809104026020016040519081016040528092919081815260200182805461019b906105a7565b80156101e85780601f106101bd576101008083540402835291602001916101e8565b820191906000526020600020905b8154815290600101906020018083116101cb57829003601f168201915b5050505050908060020180546101fd906105a7565b80601f0160208091040260200160405190810160405280929190818152602001828054610229906105a7565b80156102765780601f1061024b57610100808354040283529160200191610276565b820191906000526020600020905b81548152906001019060200180831161025957829003601f168201915b5050505060038301546004909301549192916001600160a01b0316905085565b6000805490806102a5836105e2565b9091555060008181556040805160a081018252838152602080820187815282840187905260608301859052336080840152948452600281529190922082518155925180519293926102fc926001850192019061034f565b506040820151805161031891600284019160209091019061034f565b5060608201516003820155608090910151600490910180546001600160a01b0319166001600160a01b039092169190911790555050565b82805461035b906105a7565b90600052602060002090601f01602090048101928261037d57600085556103c3565b82601f1061039657805160ff19168380011785556103c3565b828001600101855582156103c3579182015b828111156103c35782518255916020019190600101906103a8565b506103cf9291506103d3565b5090565b5b808211156103cf57600081556001016103d4565b600082601f8301126103f957600080fd5b813567ffffffffffffffff808211156104145761041461060b565b604051601f8301601f19908116603f0116810190828211818310171561043c5761043c61060b565b8160405283815286602085880101111561045557600080fd5b836020870160208301376000602085830101528094505050505092915050565b6000806040838503121561048857600080fd5b823567ffffffffffffffff808211156104a057600080fd5b6104ac868387016103e8565b935060208501359150808211156104c257600080fd5b506104cf858286016103e8565b9150509250929050565b6000602082840312156104eb57600080fd5b5035919050565b6000815180845260005b81811015610518576020818501810151868301820152016104fc565b8181111561052a576000602083870101525b50601f01601f19169290920160200192915050565b60208152600061055260208301846104f2565b9392505050565b85815260a06020820152600061057260a08301876104f2565b828103604084015261058481876104f2565b606084019590955250506001600160a01b03919091166080909101529392505050565b600181811c908216806105bb57607f821691505b602082108114156105dc57634e487b7160e01b600052602260045260246000fd5b50919050565b600060001982141561060457634e487b7160e01b600052601160045260246000fd5b5060010190565b634e487b7160e01b600052604160045260246000fdfea264697066735822122028f92256b67da6c7f74d85d9221c2a77f5c8527ebf499d52891e32e8d53d585464736f6c63430008050033",
    "sourcePath": "/home/develioper/Desktop/Blockchain/Celo-Fellowship'21/creati-nifty/creatinifty/src/contracts/Creatinifty.sol",
    "compiler": {
        "name": "solc",
        "version": "0.8.5+commit.a4f2e591"
    },
    "functionHashes": {
        "imageCount()": "92053b63",
        "images(uint256)": "84856482",
        "name()": "06fdde03",
        "uploadImage(string,string)": "a91b8314"
    },
    "gasEstimates": {
        "creation": {
            "codeDepositCost": "324600",
            "executionCost": "infinite",
            "totalCost": "infinite"
        },
        "external": {
            "imageCount()": "2317",
            "images(uint256)": "infinite",
            "name()": "infinite",
            "uploadImage(string,string)": "infinite"
        }
    }
}